{
  "contractName": "Hostel",
  "abi": [
    {
      "constant": true,
      "inputs": [
        {
          "name": "",
          "type": "uint256"
        }
      ],
      "name": "RoomAgreement_by_No",
      "outputs": [
        {
          "name": "roomid",
          "type": "uint256"
        },
        {
          "name": "agreementid",
          "type": "uint256"
        },
        {
          "name": "Roomname",
          "type": "string"
        },
        {
          "name": "RoomAdress",
          "type": "string"
        },
        {
          "name": "rent_per_month",
          "type": "uint256"
        },
        {
          "name": "securityDeposit",
          "type": "uint256"
        },
        {
          "name": "lockInPeriod",
          "type": "uint256"
        },
        {
          "name": "timestamp",
          "type": "uint256"
        },
        {
          "name": "tenantAdress",
          "type": "address"
        },
        {
          "name": "landlordAdress",
          "type": "address"
        }
      ],
      "payable": false,
      "stateMutability": "view",
      "type": "function"
    },
    {
      "constant": true,
      "inputs": [],
      "name": "no_of_agreements",
      "outputs": [
        {
          "name": "",
          "type": "uint256"
        }
      ],
      "payable": false,
      "stateMutability": "view",
      "type": "function"
    },
    {
      "constant": true,
      "inputs": [
        {
          "name": "",
          "type": "uint256"
        }
      ],
      "name": "Room_by_No",
      "outputs": [
        {
          "name": "roomid",
          "type": "uint256"
        },
        {
          "name": "agreementid",
          "type": "uint256"
        },
        {
          "name": "roomname",
          "type": "string"
        },
        {
          "name": "roomaddress",
          "type": "string"
        },
        {
          "name": "rent_per_month",
          "type": "uint256"
        },
        {
          "name": "security_deposit",
          "type": "uint256"
        },
        {
          "name": "timestamp",
          "type": "uint256"
        },
        {
          "name": "vacant",
          "type": "bool"
        },
        {
          "name": "landlord",
          "type": "address"
        },
        {
          "name": "currentTenant",
          "type": "address"
        }
      ],
      "payable": false,
      "stateMutability": "view",
      "type": "function"
    },
    {
      "constant": true,
      "inputs": [],
      "name": "no_of_rooms",
      "outputs": [
        {
          "name": "",
          "type": "uint256"
        }
      ],
      "payable": false,
      "stateMutability": "view",
      "type": "function"
    },
    {
      "constant": true,
      "inputs": [],
      "name": "no_of_rent",
      "outputs": [
        {
          "name": "",
          "type": "uint256"
        }
      ],
      "payable": false,
      "stateMutability": "view",
      "type": "function"
    },
    {
      "constant": true,
      "inputs": [
        {
          "name": "",
          "type": "uint256"
        }
      ],
      "name": "Rent_by_No",
      "outputs": [
        {
          "name": "rentno",
          "type": "uint256"
        },
        {
          "name": "roomid",
          "type": "uint256"
        },
        {
          "name": "agreementid",
          "type": "uint256"
        },
        {
          "name": "Roomname",
          "type": "string"
        },
        {
          "name": "RoomAdress",
          "type": "string"
        },
        {
          "name": "rent_per_month",
          "type": "uint256"
        },
        {
          "name": "timestamp",
          "type": "uint256"
        },
        {
          "name": "tenantAdress",
          "type": "address"
        },
        {
          "name": "landlordAdress",
          "type": "address"
        }
      ],
      "payable": false,
      "stateMutability": "view",
      "type": "function"
    },
    {
      "constant": false,
      "inputs": [
        {
          "name": "_roomname",
          "type": "string"
        },
        {
          "name": "_roomaddress",
          "type": "string"
        },
        {
          "name": "_rentcost",
          "type": "uint256"
        },
        {
          "name": "_securityDeposit",
          "type": "uint256"
        }
      ],
      "name": "addRoom",
      "outputs": [],
      "payable": false,
      "stateMutability": "nonpayable",
      "type": "function"
    },
    {
      "constant": false,
      "inputs": [
        {
          "name": "_index",
          "type": "uint256"
        }
      ],
      "name": "signAgreement",
      "outputs": [],
      "payable": true,
      "stateMutability": "payable",
      "type": "function"
    },
    {
      "constant": false,
      "inputs": [
        {
          "name": "_index",
          "type": "uint256"
        }
      ],
      "name": "payRent",
      "outputs": [],
      "payable": true,
      "stateMutability": "payable",
      "type": "function"
    },
    {
      "constant": false,
      "inputs": [
        {
          "name": "_index",
          "type": "uint256"
        }
      ],
      "name": "agreementCompleted",
      "outputs": [],
      "payable": true,
      "stateMutability": "payable",
      "type": "function"
    },
    {
      "constant": false,
      "inputs": [
        {
          "name": "_index",
          "type": "uint256"
        }
      ],
      "name": "agreementTerminated",
      "outputs": [],
      "payable": false,
      "stateMutability": "nonpayable",
      "type": "function"
    }
  ],
  "bytecode": "0x608060405260006002556000600355600060045534801561001f57600080fd5b506127298061002f6000396000f3fe6080604052600436106100a9576000357c01000000000000000000000000000000000000000000000000000000009004806302bb2725146100ae57806303742de01461025e57806316abb8a11461028c578063249461e1146102ba57806346959587146102e55780634f5e44281461049957806359e2cbec146104d457806363e475bd146104ff57806375eb9ef614610672578063d0d205b71461069d578063d9e8843f14610846575b600080fd5b3480156100ba57600080fd5b506100e7600480360360208110156100d157600080fd5b8101908080359060200190929190505050610874565b604051808b81526020018a815260200180602001806020018981526020018881526020018781526020018681526020018573ffffffffffffffffffffffffffffffffffffffff1673ffffffffffffffffffffffffffffffffffffffff1681526020018473ffffffffffffffffffffffffffffffffffffffff1673ffffffffffffffffffffffffffffffffffffffff16815260200183810383528b818151815260200191508051906020019080838360005b838110156101b3578082015181840152602081019050610198565b50505050905090810190601f1680156101e05780820380516001836020036101000a031916815260200191505b5083810382528a818151815260200191508051906020019080838360005b838110156102195780820151818401526020810190506101fe565b50505050905090810190601f1680156102465780820380516001836020036101000a031916815260200191505b509c5050505050505050505050505060405180910390f35b61028a6004803603602081101561027457600080fd5b8101908080359060200190929190505050610a38565b005b6102b8600480360360208110156102a257600080fd5b8101908080359060200190929190505050611436565b005b3480156102c657600080fd5b506102cf6117ac565b6040518082815260200191505060405180910390f35b3480156102f157600080fd5b5061031e6004803603602081101561030857600080fd5b81019080803590602001909291905050506117b2565b604051808b81526020018a81526020018060200180602001898152602001888152602001878152602001861515151581526020018573ffffffffffffffffffffffffffffffffffffffff1673ffffffffffffffffffffffffffffffffffffffff1681526020018473ffffffffffffffffffffffffffffffffffffffff1673ffffffffffffffffffffffffffffffffffffffff16815260200183810383528b818151815260200191508051906020019080838360005b838110156103ee5780820151818401526020810190506103d3565b50505050905090810190601f16801561041b5780820380516001836020036101000a031916815260200191505b5083810382528a818151815260200191508051906020019080838360005b83811015610454578082015181840152602081019050610439565b50505050905090810190601f1680156104815780820380516001836020036101000a031916815260200191505b509c5050505050505050505050505060405180910390f35b3480156104a557600080fd5b506104d2600480360360208110156104bc57600080fd5b8101908080359060200190929190505050611983565b005b3480156104e057600080fd5b506104e9611b95565b6040518082815260200191505060405180910390f35b34801561050b57600080fd5b506106706004803603608081101561052257600080fd5b810190808035906020019064010000000081111561053f57600080fd5b82018360208201111561055157600080fd5b8035906020019184600183028401116401000000008311171561057357600080fd5b91908080601f016020809104026020016040519081016040528093929190818152602001838380828437600081840152601f19601f820116905080830192505050505050509192919290803590602001906401000000008111156105d657600080fd5b8201836020820111156105e857600080fd5b8035906020019184600183028401116401000000008311171561060a57600080fd5b91908080601f016020809104026020016040519081016040528093929190818152602001838380828437600081840152601f19601f8201169050808301925050505050505091929192908035906020019092919080359060200190929190505050611b9b565b005b34801561067e57600080fd5b50610687611da4565b6040518082815260200191505060405180910390f35b3480156106a957600080fd5b506106d6600480360360208110156106c057600080fd5b8101908080359060200190929190505050611daa565b604051808a815260200189815260200188815260200180602001806020018781526020018681526020018573ffffffffffffffffffffffffffffffffffffffff1673ffffffffffffffffffffffffffffffffffffffff1681526020018473ffffffffffffffffffffffffffffffffffffffff1673ffffffffffffffffffffffffffffffffffffffff168152602001838103835289818151815260200191508051906020019080838360005b8381101561079c578082015181840152602081019050610781565b50505050905090810190601f1680156107c95780820380516001836020036101000a031916815260200191505b50838103825288818151815260200191508051906020019080838360005b838110156108025780820151818401526020810190506107e7565b50505050905090810190601f16801561082f5780820380516001836020036101000a031916815260200191505b509b50505050505050505050505060405180910390f35b6108726004803603602081101561085c57600080fd5b8101908080359060200190929190505050611f68565b005b6006602052806000526040600020600091509050806000015490806001015490806002018054600181600116156101000203166002900480601f01602080910402602001604051908101604052809291908181526020018280546001816001161561010002031660029004801561092c5780601f106109015761010080835404028352916020019161092c565b820191906000526020600020905b81548152906001019060200180831161090f57829003601f168201915b505050505090806003018054600181600116156101000203166002900480601f0160208091040260200160405190810160405280929190818152602001828054600181600116156101000203166002900480156109ca5780601f1061099f576101008083540402835291602001916109ca565b820191906000526020600020905b8154815290600101906020018083116109ad57829003601f168201915b5050505050908060040154908060050154908060060154908060070154908060080160009054906101000a900473ffffffffffffffffffffffffffffffffffffffff16908060090160009054906101000a900473ffffffffffffffffffffffffffffffffffffffff1690508a565b806005600082815260200190815260200160002060070160019054906101000a900473ffffffffffffffffffffffffffffffffffffffff1673ffffffffffffffffffffffffffffffffffffffff163373ffffffffffffffffffffffffffffffffffffffff1614151515610b13576040517f08c379a000000000000000000000000000000000000000000000000000000000815260040180806020018281038252601c8152602001807f4f6e6c792054656e616e742063616e206163636573732074686973210000000081525060200191505060405180910390fd5b8160056000828152602001908152602001600020600501546005600083815260200190815260200160002060040154013410151515610bba576040517f08c379a00000000000000000000000000000000000000000000000000000000081526004018080602001828103825260208152602001807f4e6f7420656e6f75676820657468657220696e20796f75722077616c6c65742181525060200191505060405180910390fd5b82600115156005600083815260200190815260200160002060070160009054906101000a900460ff161515141515610c5a576040517f08c379a000000000000000000000000000000000000000000000000000000000815260040180806020018281038252601b8152602001807f526f6f6d2069732063757272656e746c79206f6363757069656421000000000081525060200191505060405180910390fd5b600073ffffffffffffffffffffffffffffffffffffffff163373ffffffffffffffffffffffffffffffffffffffff1614151515610c9657600080fd5b60006005600086815260200190815260200160002060070160019054906101000a900473ffffffffffffffffffffffffffffffffffffffff1690506000600560008781526020019081526020016000206005015460056000888152602001908152602001600020600401540190508173ffffffffffffffffffffffffffffffffffffffff166108fc829081150290604051600060405180830381858888f19350505050158015610d4a573d6000803e3d6000fd5b50600360008154809291906001019190505550336005600088815260200190815260200160002060080160006101000a81548173ffffffffffffffffffffffffffffffffffffffff021916908373ffffffffffffffffffffffffffffffffffffffff16021790555060006005600088815260200190815260200160002060070160006101000a81548160ff0219169083151502179055504260056000888152602001908152602001600020600601819055506003546005600088815260200190815260200160002060010181905550610140604051908101604052808781526020016003548152602001600560008981526020019081526020016000206002018054600181600116156101000203166002900480601f016020809104026020016040519081016040528092919081815260200182805460018160011615610100020316600290048015610ede5780601f10610eb357610100808354040283529160200191610ede565b820191906000526020600020905b815481529060010190602001808311610ec157829003601f168201915b50505050508152602001600560008981526020019081526020016000206003018054600181600116156101000203166002900480601f016020809104026020016040519081016040528092919081815260200182805460018160011615610100020316600290048015610f925780601f10610f6757610100808354040283529160200191610f92565b820191906000526020600020905b815481529060010190602001808311610f7557829003601f168201915b5050505050815260200160056000898152602001908152602001600020600401548152602001600560008981526020019081526020016000206005015481526020016301e1338081526020014281526020013373ffffffffffffffffffffffffffffffffffffffff1681526020018373ffffffffffffffffffffffffffffffffffffffff168152506006600060035481526020019081526020016000206000820151816000015560208201518160010155604082015181600201908051906020019061105f929190612658565b50606082015181600301908051906020019061107c929190612658565b506080820151816004015560a0820151816005015560c0820151816006015560e082015181600701556101008201518160080160006101000a81548173ffffffffffffffffffffffffffffffffffffffff021916908373ffffffffffffffffffffffffffffffffffffffff1602179055506101208201518160090160006101000a81548173ffffffffffffffffffffffffffffffffffffffff021916908373ffffffffffffffffffffffffffffffffffffffff1602179055509050506101206040519081016040528060045481526020018781526020016003548152602001600560008981526020019081526020016000206002018054600181600116156101000203166002900480601f0160208091040260200160405190810160405280929190818152602001828054600181600116156101000203166002900480156112055780601f106111da57610100808354040283529160200191611205565b820191906000526020600020905b8154815290600101906020018083116111e857829003601f168201915b50505050508152602001600560008981526020019081526020016000206003018054600181600116156101000203166002900480601f0160208091040260200160405190810160405280929190818152602001828054600181600116156101000203166002900480156112b95780601f1061128e576101008083540402835291602001916112b9565b820191906000526020600020905b81548152906001019060200180831161129c57829003601f168201915b50505050508152602001600560008981526020019081526020016000206004015481526020014281526020013373ffffffffffffffffffffffffffffffffffffffff1681526020018373ffffffffffffffffffffffffffffffffffffffff16815250600760006004548152602001908152602001600020600082015181600001556020820151816001015560408201518160020155606082015181600301908051906020019061136a929190612658565b506080820151816004019080519060200190611387929190612658565b5060a0820151816005015560c0820151816006015560e08201518160070160006101000a81548173ffffffffffffffffffffffffffffffffffffffff021916908373ffffffffffffffffffffffffffffffffffffffff1602179055506101008201518160080160006101000a81548173ffffffffffffffffffffffffffffffffffffffff021916908373ffffffffffffffffffffffffffffffffffffffff160217905550905050505050505050565b806005600082815260200190815260200160002060070160019054906101000a900473ffffffffffffffffffffffffffffffffffffffff1673ffffffffffffffffffffffffffffffffffffffff163373ffffffffffffffffffffffffffffffffffffffff16141515611510576040517f08c379a000000000000000000000000000000000000000000000000000000000815260040180806020018281038252601e8152602001807f4f6e6c79206c616e646c6f72642063616e20616363657373207468697321000081525060200191505060405180910390fd5b8160006005600083815260200190815260200160002060010154905060006006600083815260200190815260200160002060060154600660008481526020019081526020016000206007015401905080421115156115fc576040517f08c379a000000000000000000000000000000000000000000000000000000000815260040180806020018281038252602e8152602001807f5468657265206973207374696c6c2074696d65206c65667420666f722061677281526020017f65656d656e7420746f20656e642100000000000000000000000000000000000081525060400191505060405180910390fd5b600073ffffffffffffffffffffffffffffffffffffffff163373ffffffffffffffffffffffffffffffffffffffff161415151561163857600080fd5b600015156005600087815260200190815260200160002060070160009054906101000a900460ff1615151415156116d7576040517f08c379a000000000000000000000000000000000000000000000000000000000815260040180806020018281038252601b8152602001807f526f6f6d2069732063757272656e746c79206f6363757069656421000000000081525060200191505060405180910390fd5b60016005600087815260200190815260200160002060070160006101000a81548160ff02191690831515021790555060006005600087815260200190815260200160002060080160009054906101000a900473ffffffffffffffffffffffffffffffffffffffff1690506000600560008881526020019081526020016000206005015490508173ffffffffffffffffffffffffffffffffffffffff166108fc829081150290604051600060405180830381858888f193505050501580156117a2573d6000803e3d6000fd5b5050505050505050565b60035481565b6005602052806000526040600020600091509050806000015490806001015490806002018054600181600116156101000203166002900480601f01602080910402602001604051908101604052809291908181526020018280546001816001161561010002031660029004801561186a5780601f1061183f5761010080835404028352916020019161186a565b820191906000526020600020905b81548152906001019060200180831161184d57829003601f168201915b505050505090806003018054600181600116156101000203166002900480601f0160208091040260200160405190810160405280929190818152602001828054600181600116156101000203166002900480156119085780601f106118dd57610100808354040283529160200191611908565b820191906000526020600020905b8154815290600101906020018083116118eb57829003601f168201915b5050505050908060040154908060050154908060060154908060070160009054906101000a900460ff16908060070160019054906101000a900473ffffffffffffffffffffffffffffffffffffffff16908060080160009054906101000a900473ffffffffffffffffffffffffffffffffffffffff1690508a565b806005600082815260200190815260200160002060070160019054906101000a900473ffffffffffffffffffffffffffffffffffffffff1673ffffffffffffffffffffffffffffffffffffffff163373ffffffffffffffffffffffffffffffffffffffff16141515611a5d576040517f08c379a000000000000000000000000000000000000000000000000000000000815260040180806020018281038252601e8152602001807f4f6e6c79206c616e646c6f72642063616e20616363657373207468697321000081525060200191505060405180910390fd5b816000600560008381526020019081526020016000206001015490506000600660008381526020019081526020016000206006015460066000848152602001908152602001600020600701540190508042101515611b23576040517f08c379a00000000000000000000000000000000000000000000000000000000081526004018080602001828103825260188152602001807f41677265656d656e7420616c726561647920656e64656421000000000000000081525060200191505060405180910390fd5b600073ffffffffffffffffffffffffffffffffffffffff163373ffffffffffffffffffffffffffffffffffffffff1614151515611b5f57600080fd5b60016005600087815260200190815260200160002060070160006101000a81548160ff0219169083151502179055505050505050565b60025481565b600073ffffffffffffffffffffffffffffffffffffffff163373ffffffffffffffffffffffffffffffffffffffff1614151515611bd757600080fd5b600260008154809291906001019190505550600060019050610140604051908101604052806002548152602001600081526020018681526020018581526020018481526020018381526020016000815260200182151581526020013373ffffffffffffffffffffffffffffffffffffffff168152602001600073ffffffffffffffffffffffffffffffffffffffff1681525060056000600254815260200190815260200160002060008201518160000155602082015181600101556040820151816002019080519060200190611cae929190612658565b506060820151816003019080519060200190611ccb929190612658565b506080820151816004015560a0820151816005015560c0820151816006015560e08201518160070160006101000a81548160ff0219169083151502179055506101008201518160070160016101000a81548173ffffffffffffffffffffffffffffffffffffffff021916908373ffffffffffffffffffffffffffffffffffffffff1602179055506101208201518160080160006101000a81548173ffffffffffffffffffffffffffffffffffffffff021916908373ffffffffffffffffffffffffffffffffffffffff1602179055509050505050505050565b60045481565b6007602052806000526040600020600091509050806000015490806001015490806002015490806003018054600181600116156101000203166002900480601f016020809104026020016040519081016040528092919081815260200182805460018160011615610100020316600290048015611e685780601f10611e3d57610100808354040283529160200191611e68565b820191906000526020600020905b815481529060010190602001808311611e4b57829003601f168201915b505050505090806004018054600181600116156101000203166002900480601f016020809104026020016040519081016040528092919081815260200182805460018160011615610100020316600290048015611f065780601f10611edb57610100808354040283529160200191611f06565b820191906000526020600020905b815481529060010190602001808311611ee957829003601f168201915b5050505050908060050154908060060154908060070160009054906101000a900473ffffffffffffffffffffffffffffffffffffffff16908060080160009054906101000a900473ffffffffffffffffffffffffffffffffffffffff16905089565b806005600082815260200190815260200160002060080160009054906101000a900473ffffffffffffffffffffffffffffffffffffffff1673ffffffffffffffffffffffffffffffffffffffff163373ffffffffffffffffffffffffffffffffffffffff16141515612068576040517f08c379a00000000000000000000000000000000000000000000000000000000081526004018080602001828103825260308152602001807f4e6f2070726576696f75732061677265656d656e7420666f756e64207769746881526020017f20796f752026206c616e646c6f7264210000000000000000000000000000000081525060400191505060405180910390fd5b81600062278d006005600084815260200190815260200160002060060154019050804210151515612127576040517f08c379a00000000000000000000000000000000000000000000000000000000081526004018080602001828103825260258152602001807f5468657265206973207374696c6c2074696d65206c65667420746f207061792081526020017f72656e742100000000000000000000000000000000000000000000000000000081525060400191505060405180910390fd5b83600560008281526020019081526020016000206004015434101515156121b6576040517f08c379a00000000000000000000000000000000000000000000000000000000081526004018080602001828103825260208152602001807f4e6f7420656e6f75676820657468657220696e20796f75722077616c6c65742181525060200191505060405180910390fd5b600073ffffffffffffffffffffffffffffffffffffffff163373ffffffffffffffffffffffffffffffffffffffff16141515156121f257600080fd5b60006005600087815260200190815260200160002060070160019054906101000a900473ffffffffffffffffffffffffffffffffffffffff1690506000600560008881526020019081526020016000206004015490508173ffffffffffffffffffffffffffffffffffffffff166108fc829081150290604051600060405180830381858888f1935050505015801561228e573d6000803e3d6000fd5b50336005600089815260200190815260200160002060080160006101000a81548173ffffffffffffffffffffffffffffffffffffffff021916908373ffffffffffffffffffffffffffffffffffffffff16021790555060006005600089815260200190815260200160002060070160006101000a81548160ff021916908315150217905550600260008154809291906001019190505550610120604051908101604052806004548152602001888152602001600560008a8152602001908152602001600020600101548152602001600560008a81526020019081526020016000206002018054600181600116156101000203166002900480601f0160208091040260200160405190810160405280929190818152602001828054600181600116156101000203166002900480156124065780601f106123db57610100808354040283529160200191612406565b820191906000526020600020905b8154815290600101906020018083116123e957829003601f168201915b50505050508152602001600560008a81526020019081526020016000206003018054600181600116156101000203166002900480601f0160208091040260200160405190810160405280929190818152602001828054600181600116156101000203166002900480156124ba5780601f1061248f576101008083540402835291602001916124ba565b820191906000526020600020905b81548152906001019060200180831161249d57829003601f168201915b505050505081526020018281526020014281526020013373ffffffffffffffffffffffffffffffffffffffff168152602001600560008a815260200190815260200160002060070160019054906101000a900473ffffffffffffffffffffffffffffffffffffffff1673ffffffffffffffffffffffffffffffffffffffff16815250600760006004548152602001908152602001600020600082015181600001556020820151816001015560408201518160020155606082015181600301908051906020019061258b929190612658565b5060808201518160040190805190602001906125a8929190612658565b5060a0820151816005015560c0820151816006015560e08201518160070160006101000a81548173ffffffffffffffffffffffffffffffffffffffff021916908373ffffffffffffffffffffffffffffffffffffffff1602179055506101008201518160080160006101000a81548173ffffffffffffffffffffffffffffffffffffffff021916908373ffffffffffffffffffffffffffffffffffffffff16021790555090505050505050505050565b828054600181600116156101000203166002900490600052602060002090601f016020900481019282601f1061269957805160ff19168380011785556126c7565b828001600101855582156126c7579182015b828111156126c65782518255916020019190600101906126ab565b5b5090506126d491906126d8565b5090565b6126fa91905b808211156126f65760008160009055506001016126de565b5090565b9056fea165627a7a7230582075527efef79cb7979f1b348b19497f717d86c3f6023d876480b961f7619edc890029",
  "source": "// SPDX-License-Identifier: MIT\npragma solidity >=0.4.22 <0.9.0;\n\ncontract Hostel {\n  // hostel personels\n  address payable tenant;\n  address payable landlord;\n  uint public no_of_rooms = 0;\n  uint public no_of_agreements = 0;\n  uint public no_of_rent = 0;\n\n  // hostel details\n  struct Room{\n    uint roomid;\n    uint agreementid;\n    string roomname;\n    string roomaddress;\n    uint rent_per_month;\n    uint security_deposit;\n    uint timestamp;\n    bool vacant;\n    address payable landlord;\n    address payable currentTenant;\n  }\n  \n  mapping (uint => Room) public Room_by_No;\n\n    struct RoomAgreement {\n    uint roomid;\n    uint agreementid;\n    string Roomname;\n    string RoomAdress;\n    uint rent_per_month;\n    uint securityDeposit;\n    uint lockInPeriod;\n    uint timestamp;\n    address payable tenantAdress;\n    address payable landlordAdress;\n  }\n\n  mapping(uint => RoomAgreement) public RoomAgreement_by_No;\n\n  struct Rent {\n    uint rentno;\n    uint roomid;\n    uint agreementid;\n    string Roomname;\n    string RoomAdress;\n    uint rent_per_month;\n    uint timestamp;\n    address payable tenantAdress;\n    address payable landlordAdress;\n  }\n\n  mapping (uint => Rent) public Rent_by_No;\n\n  modifier onlyLandlord(uint _index) {\n    require(msg.sender == Room_by_No[_index].landlord, \"Only landlord can access this!\");\n    _;\n  }\n\n  modifier notLandlord(uint _index) {\n    require(msg.sender != Room_by_No[_index].landlord, \"Only Tenant can access this!\");\n    _;\n  }\n\n  modifier onlyWhileVacant(uint _index) {\n    require(Room_by_No[_index].vacant == true, \"Room is currently occupied!\");\n    _;\n  }\n\n  modifier enoughRent(uint _index) {\n    require(msg.value >= uint(Room_by_No[_index].rent_per_month), \"Not enough ether in your wallet!\");\n    _;\n  }\n\n  modifier enoughAgreementFee(uint _index) {\n    require(msg.value >= uint(Room_by_No[_index].rent_per_month) + uint(Room_by_No[_index].security_deposit), \"Not enough ether in your wallet!\");\n    _;\n  }\n\n  modifier sameTenant(uint _index) {\n    require(msg.sender == Room_by_No[_index].currentTenant, \"No previous agreement found with you & landlord!\");\n    _;\n  }\n\n  modifier agreementTimeLeft(uint _index) {\n    uint _AgreementNo = Room_by_No[_index].agreementid;\n    uint time = RoomAgreement_by_No[_AgreementNo].timestamp + RoomAgreement_by_No[_AgreementNo].lockInPeriod;\n    require(now < time, \"Agreement already ended!\");\n    _;\n  }\n\n  modifier agreementTimeUp(uint _index) {\n    uint _AgreementNo = Room_by_No[_index].agreementid;\n    uint time = RoomAgreement_by_No[_AgreementNo].timestamp + RoomAgreement_by_No[_AgreementNo].lockInPeriod;\n    require(now > time, \"There is still time left for agreement to end!\");\n    _;\n  }\n\n  modifier rentTimeUp(uint _index) {\n    uint time = Room_by_No[_index].timestamp + 30 days;\n    require(now >= time, \"There is still time left to pay rent!\");\n    _;\n  }\n\n  function addRoom(string memory _roomname, string memory _roomaddress, uint _rentcost, uint _securityDeposit) public {\n    require(msg.sender != address(0));\n    no_of_rooms ++;\n    bool _vacant = true;\n    Room_by_No[no_of_rooms] = Room(no_of_rooms, 0, _roomname, _roomaddress, _rentcost, _securityDeposit, 0, _vacant, msg.sender, address(0));\n  }\n\n  function signAgreement(uint _index) public payable notLandlord(_index) enoughAgreementFee(_index) onlyWhileVacant(_index){\n    require(msg.sender != address(0));\n    address payable _landlord = Room_by_No[_index].landlord;\n    uint totalFee = Room_by_No[_index].rent_per_month + Room_by_No[_index].security_deposit;\n    _landlord.transfer(totalFee);\n    no_of_agreements++;\n    Room_by_No[_index].currentTenant = msg.sender;\n    Room_by_No[_index].vacant = false;\n    Room_by_No[_index].timestamp = block.timestamp;\n    Room_by_No[_index].agreementid = no_of_agreements;\n    RoomAgreement_by_No[no_of_agreements] = RoomAgreement(_index, no_of_agreements, Room_by_No[_index].roomname, Room_by_No[_index].roomaddress, Room_by_No[_index].rent_per_month, Room_by_No[_index].security_deposit, 365 days, block.timestamp, msg.sender, _landlord);\n    Rent_by_No[no_of_rent] = Rent(no_of_rent, _index, no_of_agreements, Room_by_No[_index].roomname, Room_by_No[_index].roomaddress, Room_by_No[_index].rent_per_month, now, msg.sender, _landlord);\n  }\n\n  function payRent(uint _index) public payable sameTenant(_index) rentTimeUp(_index) enoughRent(_index){\n    require(msg.sender != address(0));\n    address payable _landlord = Room_by_No[_index].landlord;\n    uint _rent = Room_by_No[_index].rent_per_month;\n    _landlord.transfer(_rent);\n    Room_by_No[_index].currentTenant = msg.sender;\n    Room_by_No[_index].vacant = false;\n    no_of_rooms ++;\n    Rent_by_No[no_of_rent] = Rent(no_of_rent, _index, Room_by_No[_index].agreementid, Room_by_No[_index].roomname, Room_by_No[_index].roomaddress, _rent, now, msg.sender, Room_by_No[_index].landlord);\n  }\n\n  function agreementCompleted(uint _index) public payable onlyLandlord(_index) agreementTimeUp(_index){\n    require(msg.sender != address(0));\n    require(Room_by_No[_index].vacant == false, \"Room is currently occupied!\");\n    Room_by_No[_index].vacant = true;\n    address payable _Tenant = Room_by_No[_index].currentTenant;\n    uint _securityDeposit = Room_by_No[_index].security_deposit;\n    _Tenant.transfer(_securityDeposit);\n  }\n\n  function agreementTerminated(uint _index) public onlyLandlord(_index) agreementTimeLeft(_index){\n    require(msg.sender != address(0));\n    Room_by_No[_index].vacant = true;\n  }\n}",
  "sourcePath": "D:\\Interview-Preparation\\smart-contracts\\hostel-contract\\contracts\\Hostel.sol",
  "compiler": {
    "name": "solc",
    "version": "0.5.1+commit.c8a2cb62.Emscripten.clang"
  },
  "schemaVersion": "3.4.16",
  "updatedAt": "2024-08-21T07:57:34.849Z",
  "networkType": "ethereum",
  "devdoc": {
    "methods": {}
  },
  "userdoc": {
    "methods": {}
  }
}