{
  "contractName": "MyContract",
  "abi": [
    {
      "constant": false,
      "inputs": [
        {
          "name": "_number",
          "type": "uint256"
        }
      ],
      "name": "setNumber",
      "outputs": [],
      "payable": false,
      "stateMutability": "nonpayable",
      "type": "function"
    },
    {
      "constant": true,
      "inputs": [],
      "name": "getNumber",
      "outputs": [
        {
          "name": "",
          "type": "uint256"
        }
      ],
      "payable": false,
      "stateMutability": "view",
      "type": "function"
    }
  ],
  "bytecode": "0x608060405234801561001057600080fd5b5060f58061001f6000396000f3fe6080604052600436106043576000357c0100000000000000000000000000000000000000000000000000000000900480633fb5c1cb146048578063f2c9ecd814607f575b600080fd5b348015605357600080fd5b50607d60048036036020811015606857600080fd5b810190808035906020019092919050505060a7565b005b348015608a57600080fd5b50609160c0565b6040518082815260200191505060405180910390f35b6000811015151560b657600080fd5b8060008190555050565b6000805490509056fea165627a7a72305820624037857f85248c0e7dd7df0e8110d4e452d4c9ba421173e4ef73fe2f9e557e0029",
  "source": "// SPDX-License-Identifier: MIT\npragma solidity >=0.4.22 <8.10.0;\n\ncontract MyContract {\n  uint number;\n  \n  function setNumber(uint _number) public {\n    require(_number >= 0);\n    number = _number;\n  }\n\n  function getNumber() public view returns (uint) {\n    return number;\n  }\n}\n",
  "sourcePath": "D:\\Interview-Preparation\\smart-contracts\\hostel-contract\\contracts\\MyContract.sol",
  "compiler": {
    "name": "solc",
    "version": "0.5.1+commit.c8a2cb62.Emscripten.clang"
  },
  "schemaVersion": "3.4.16",
  "updatedAt": "2024-08-21T07:57:34.531Z",
  "networkType": "ethereum",
  "devdoc": {
    "methods": {}
  },
  "userdoc": {
    "methods": {}
  }
}